:100000000C942A000C9434000C9434000C943400AA
:100010000C9434000C9434000C9434000C94340090
:100020000C9434000C9434000C9434000C94340080
:100030000C9434000C9434000C9434000C94340070
:100040000C9434000C9434000C9434000C94340060
:100050000C94340011241FBECFE5D4E0DEBFCDBF29
:100060000E94D2020C942B050C940000CF93DF93D6
:1000700000D00F92CDB7DEB789836A834B83898125
:10008000843008F0FFC08A81883008F0FBC08B8183
:10009000823008F0F7C08981882F90E08330910585
:1000A00009F4B3C0843091050CF0ECC082309105A6
:1000B00009F475C0833091050CF0E4C0009719F085
:1000C0000197B9F1DFC08B81882F90E00097C9F0CC
:1000D000019709F0CFC08AE390E0FC018081482FAE
:1000E0008A81282F30E081E090E002C0880F991FBC
:1000F0002A95E2F7242F282B8AE390E0FC01208345
:1001000017C08AE390E0FC018081482F8A81282F64
:1001100030E081E090E002C0880F991F2A95E2F755
:100120008095242F28238AE390E0FC01208300009F
:10013000A1C08B81882F90E00097C9F0019709F04A
:100140009BC087E390E0FC018081482F8A81282FA3
:1001500030E081E090E002C0880F991F2A95E2F715
:10016000242F282B87E390E0FC01208317C087E32E
:1001700090E0FC018081482F8A81282F30E081E0C7
:1001800090E002C0880F991F2A95E2F78095242FEE
:10019000282387E390E0FC01208300006DC08B8161
:1001A000882F90E00097C9F0019709F067C084E3B9
:1001B00090E0FC018081482F8A81282F30E081E087
:1001C00090E002C0880F991F2A95E2F7242F282B70
:1001D00084E390E0FC01208317C084E390E0FC01FD
:1001E0008081482F8A81282F30E081E090E002C092
:1001F000880F991F2A95E2F78095242F282384E3FE
:1002000090E0FC012083000039C08B81882F90E0B2
:100210000097C1F00197A1F581E390E0FC01808196
:10022000482F8A81282F30E081E090E002C0880FBB
:10023000991F2A95E2F7242F282B81E390E0FC01F7
:10024000208317C081E390E0FC018081482F8A81E0
:10025000282F30E081E090E002C0880F991F2A9596
:10026000E2F78095242F282381E390E0FC0120838E
:10027000000006C0000005C0000003C0000001C06F
:100280000000000000000F900F900F90DF91CF91C1
:100290000895CF93DF9300D00F92CDB7DEB7898357
:1002A0006A834B838981843008F0F7C08A81883063
:1002B00008F0F3C08B81823008F0EFC08981882F6D
:1002C00090E08330910509F4B3C0843091050CF0BF
:1002D000EDC08230910509F475C0833091050CF0B2
:1002E000E5C0009719F00197B9F1E0C08B81882F24
:1002F00090E00097C9F0019709F0D1C08BE390E03E
:10030000FC018081482F8A81282F30E081E090E035
:1003100002C0880F991F2A95E2F7242F282B8BE320
:1003200090E0FC01208317C08BE390E0FC0180810A
:10033000482F8A81282F30E081E090E002C0880FAA
:10034000991F2A95E2F78095242F28238BE390E0CC
:10035000FC0120830000A3C08B81882F90E00097D0
:10036000C9F0019709F09DC088E390E0FC0180810D
:10037000482F8A81282F30E081E090E002C0880F6A
:10038000991F2A95E2F7242F282B88E390E0FC019F
:10039000208317C088E390E0FC018081482F8A8188
:1003A000282F30E081E090E002C0880F991F2A9545
:1003B000E2F78095242F282388E390E0FC01208336
:1003C00000006FC08B81882F90E00097C9F00197E3
:1003D00009F069C085E390E0FC018081482F8A81A3
:1003E000282F30E081E090E002C0880F991F2A9505
:1003F000E2F7242F282B85E390E0FC01208317C02F
:1004000085E390E0FC018081482F8A81282F30E02D
:1004100081E090E002C0880F991F2A95E2F780954D
:10042000242F282385E390E0FC01208300003BC0BB
:100430008B81882F90E00097C1F00197B1F582E39E
:1004400090E0FC018081482F8A81282F30E081E0F4
:1004500090E002C0880F991F2A95E2F7242F282BDD
:1004600082E390E0FC01208317C082E390E0FC016E
:100470008081482F8A81282F30E081E090E002C0FF
:10048000880F991F2A95E2F78095242F282382E36D
:1004900090E0FC012083000008C0000007C00000BD
:1004A00005C0000003C0000001C0000000000F9064
:1004B0000F900F90DF91CF910895CF93DF9300D0ED
:1004C0000F92CDB7DEB78A836B8385E089838A81FB
:1004D000843008F05FC08B81883008F05BC08A816F
:1004E000882F90E08330910509F443C08430910552
:1004F0000CF051C08230910559F1833091050CF018
:100500004AC0009719F0019791F045C089E390E047
:10051000FC018081882F90E02B81222F30E002C0E7
:10052000959587952A95E2F78170898334C086E393
:1005300090E0FC018081882F90E02B81222F30E019
:1005400002C0959587952A95E2F78170898323C02B
:1005500083E390E0FC018081882F90E02B81222FA3
:1005600030E002C0959587952A95E2F781708983DE
:1005700012C080E390E0FC018081882F90E02B8105
:10058000222F30E002C0959587952A95E2F7817079
:10059000898301C0000089810F900F900F90DF9137
:1005A000CF910895CF93DF93CDB7DEB7C454D1096F
:1005B0000FB6F894DEBF0FBECDBF41E067E080E02C
:1005C0000E94360041E067E080E00E94490180E03F
:1005D00090E0AAE7B4E48F87988BA98BBA8B20E0D0
:1005E00030E04AE753E46F85788989899A890E94C7
:1005F00096046DA37EA38FA398A78DA19EA1AFA102
:10060000B8A58B8B9C8BAD8BBE8B20E030E040E897
:100610005FE36B897C898D899E890E941004882301
:100620002CF481E090E0988F8F8B54C020E03FEF56
:100630004FE757E46B897C898D899E890E949104DC
:100640001816D4F520E030E040E251E46F85788957
:1006500089899A890E94960469A77AA78BA79CA783
:1006600089A59AA5ABA5BCA589A39AA3ABA3BCA356
:1006700069A17AA18BA19CA10E9415046DA77EA7F8
:100680008FA798ABADA5BEA5B88FAF8B10C089E181
:1006900090E09A8F898F898D9A8D0197F1F79A8FC3
:1006A000898F00008F89988D0197988F8F8B8F8904
:1006B000988D892B61F719C06B897C898D899E89FA
:1006C0000E94150469AB7AAB8BAB9CAB89A99AA944
:1006D000988F8F8B8F89988D9C8F8B8F8B8D9C8D16
:1006E0000197F1F79C8F8B8F000040E067E080E07E
:1006F0000E94490180E090E0AAE7B4E489839A83EC
:10070000AB83BC8320E030E04AE753E469817A811F
:100710008B819C810E9496046DAB7EAB8FAB98AFB2
:100720008DA99EA9AFA9B8AD8D839E83AF83B887ED
:1007300020E030E040E85FE36D817E818F81988525
:100740000E94100488232CF481E090E09A87898726
:100750005BC020E03FEF4FE757E46D817E818F81E2
:1007600098850E94910418160CF03CC020E030E0FF
:1007700040E251E469817A818B819C810E949604D8
:1007800069AF7AAF8BAF9CAF89AD9AADABADBCAD65
:100790008D8F9E8FAF8FB8A36D8D7E8D8F8D98A11D
:1007A0000E94150421966CAF7DAF8EAF9FAF21974D
:1007B000ADADBEADBA87A98710C089E190E09C8736
:1007C0008B878B859C850197F1F79C878B87000031
:1007D00089859A8501979A87898789859A85892B42
:1007E00061F71DC06D817E818F8198850E941504FF
:1007F00025966CAF7DAF8EAF9FAF259723968EADBC
:100800009FAD23979A87898789859A859E878D874B
:100810008D859E850197F1F79E878D870000D2CE4A
:100820000E94440408F481E008950E94700488F056
:100830009F5798F0B92F9927B751B0F0E1F0660FA4
:10084000771F881F991F1AF0BA95C9F714C0B130E5
:1008500091F00E948A04B1E008950C948A04672FF5
:10086000782F8827B85F39F0B93FCCF38695779514
:100870006795B395D9F73EF49095809570956195FD
:100880007F4F8F4F9F4F0895990F0008550FAA0B68
:10089000E0E8FEEF16161706E807F907C0F0121693
:1008A0001306E407F50798F0621B730B840B950B96
:1008B00039F40A2661F0232B242B252B21F40895EB
:1008C0000A2609F4A140A6958FEF811D811D089588
:1008D00057FD9058440F551F59F05F3F71F04795F1
:1008E000880F97FB991F61F09F3F79F087950895D6
:1008F000121613061406551FF2CF4695F1DF08C0F5
:10090000161617061806991FF1CF86957105610511
:1009100008940895E894BB2766277727CB0197F9B9
:1009200008950E94440408F48FEF08950E94A904DA
:100930000C941A050E940C0538F00E94130520F053
:10094000952311F00C9403050C94090511240C94C3
:100950008B040E94680470F3959FC1F3950F50E0DB
:10096000551F629FF001729FBB27F00DB11D639F61
:10097000AA27F00DB11DAA1F649F6627B00DA11D07
:10098000661F829F2227B00DA11D621F739FB00DAD
:10099000A11D621F839FA00D611D221F749F33271D
:1009A000A00D611D231F849F600D211D822F762FB6
:1009B0006A2F11249F5750409AF0F1F088234AF093
:1009C000EE0FFF1FBB1F661F771F881F91505040FF
:1009D000A9F79E3F510580F00C9403050C948B04FD
:1009E0005F3FE4F3983ED4F3869577956795B79586
:1009F000F795E7959F5FC1F7FE2B880F911D9695A0
:100A0000879597F9089597F99F6780E870E060E00F
:100A100008959FEF80EC089500240A941616170697
:100A200018060906089500240A94121613061406DF
:100A300005060895092E0394000C11F4882352F042
:100A4000BB0F40F4BF2B11F460FF04C06F5F7F4FFA
:0A0A50008F4F9F4F0895F894FFCFD9
:00000001FF
